{
  "_format": "hh-sol-artifact-1",
  "contractName": "MyStorage",
  "sourceName": "contracts/MyStorage.sol",
  "abi": [
    {
      "inputs": [
        {
          "internalType": "uint256",
          "name": "x",
          "type": "uint256"
        }
      ],
      "name": "helper",
      "outputs": [
        {
          "internalType": "uint256",
          "name": "",
          "type": "uint256"
        }
      ],
      "stateMutability": "view",
      "type": "function"
    }
  ],
  "bytecode": "0x6080604052348015600f57600080fd5b5060af8061001e6000396000f3fe6080604052348015600f57600080fd5b506004361060285760003560e01c8063dabf7ec414602d575b600080fd5b605660048036036020811015604157600080fd5b8101908080359060200190929190505050606c565b6040518082815260200191505060405180910390f35b600060028202905091905056fea264697066735822122073508ee6998fc12364eb4f408b6257ab5072f929cba82f4c7ec9a11ef9c350df64736f6c63430007030033",
  "linkReferences": {},
  "deployedLinkReferences": {}
}