{
  "_format": "hh-sol-artifact-1",
  "contractName": "MyStorage",
  "sourceName": "contracts/MyStorage.sol",
  "abi": [
    {
      "inputs": [
        {
          "internalType": "uint256",
          "name": "x",
          "type": "uint256"
        }
      ],
      "name": "get",
      "outputs": [
        {
          "internalType": "uint256",
          "name": "",
          "type": "uint256"
        }
      ],
      "stateMutability": "pure",
      "type": "function"
    },
    {
      "inputs": [
        {
          "internalType": "uint256",
          "name": "x",
          "type": "uint256"
        }
      ],
      "name": "helper",
      "outputs": [
        {
          "internalType": "uint256",
          "name": "",
          "type": "uint256"
        }
      ],
      "stateMutability": "view",
      "type": "function"
    }
  ],
  "bytecode": "0x608060405234801561001057600080fd5b50610108806100206000396000f3fe6080604052348015600f57600080fd5b506004361060325760003560e01c80639507d39a146037578063dabf7ec4146076575b600080fd5b606060048036036020811015604b57600080fd5b810190808035906020019092919050505060b5565b6040518082815260200191505060405180910390f35b609f60048036036020811015608a57600080fd5b810190808035906020019092919050505060c2565b6040518082815260200191505060405180910390f35b6000600282029050919050565b600060cb8260b5565b905091905056fea26469706673582212202bbcebff3736f89fe223470b5304cd869a4291ff518592eefd444cf9ad51698f64736f6c63430007030033",
  "linkReferences": {},
  "deployedLinkReferences": {}
}